{
  "contractName": "Purchase",
  "abi": [
    {
      "constant": true,
      "inputs": [],
      "name": "seller",
      "outputs": [
        {
          "name": "",
          "type": "address"
        }
      ],
      "payable": false,
      "stateMutability": "view",
      "type": "function"
    },
    {
      "constant": true,
      "inputs": [
        {
          "name": "",
          "type": "uint256"
        }
      ],
      "name": "purchases",
      "outputs": [
        {
          "name": "",
          "type": "address"
        }
      ],
      "payable": false,
      "stateMutability": "view",
      "type": "function"
    },
    {
      "inputs": [
        {
          "name": "_seller",
          "type": "address"
        }
      ],
      "payable": false,
      "stateMutability": "nonpayable",
      "type": "constructor"
    },
    {
      "constant": false,
      "inputs": [
        {
          "name": "foodId",
          "type": "uint256"
        }
      ],
      "name": "purchase",
      "outputs": [
        {
          "name": "",
          "type": "uint256"
        }
      ],
      "payable": false,
      "stateMutability": "nonpayable",
      "type": "function"
    },
    {
      "constant": false,
      "inputs": [],
      "name": "getPurchases",
      "outputs": [
        {
          "name": "",
          "type": "address[8]"
        }
      ],
      "payable": false,
      "stateMutability": "nonpayable",
      "type": "function"
    }
  ],
  "bytecode": "0x608060405234801561001057600080fd5b506040516020806104f18339810180604052810190808051906020019092919050505080600860006101000a81548173ffffffffffffffffffffffffffffffffffffffff021916908373ffffffffffffffffffffffffffffffffffffffff1602179055505061046d806100846000396000f300608060405260043610610062576000357c0100000000000000000000000000000000000000000000000000000000900463ffffffff16806308551a53146100675780638392fe31146100be578063c47f0f901461012b578063efef39a11461017e575b600080fd5b34801561007357600080fd5b5061007c6101bf565b604051808273ffffffffffffffffffffffffffffffffffffffff1673ffffffffffffffffffffffffffffffffffffffff16815260200191505060405180910390f35b3480156100ca57600080fd5b506100e9600480360381019080803590602001909291905050506101e5565b604051808273ffffffffffffffffffffffffffffffffffffffff1673ffffffffffffffffffffffffffffffffffffffff16815260200191505060405180910390f35b34801561013757600080fd5b5061014061021a565b6040518082600860200280838360005b8381101561016b578082015181840152602081019050610150565b5050505090500191505060405180910390f35b34801561018a57600080fd5b506101a96004803603810190808035906020019092919050505061029b565b6040518082815260200191505060405180910390f35b600860009054906101000a900473ffffffffffffffffffffffffffffffffffffffff1681565b6000816008811015156101f457fe5b016000915054906101000a900473ffffffffffffffffffffffffffffffffffffffff1681565b61022261041d565b6000600880602002604051908101604052809291908260088015610291576020028201915b8160009054906101000a900473ffffffffffffffffffffffffffffffffffffffff1673ffffffffffffffffffffffffffffffffffffffff1681526020019060010190808311610247575b5050505050905090565b600080600083101580156102b0575060078311155b15156102bb57600080fd5b3390508073ffffffffffffffffffffffffffffffffffffffff1663a9059cbb600860009054906101000a900473ffffffffffffffffffffffffffffffffffffffff1660016040518363ffffffff167c0100000000000000000000000000000000000000000000000000000000028152600401808373ffffffffffffffffffffffffffffffffffffffff1673ffffffffffffffffffffffffffffffffffffffff16815260200182815260200192505050602060405180830381600087803b15801561038457600080fd5b505af1158015610398573d6000803e3d6000fd5b505050506040513d60208110156103ae57600080fd5b81019080805190602001909291905050501561041457336000846008811015156103d457fe5b0160006101000a81548173ffffffffffffffffffffffffffffffffffffffff021916908373ffffffffffffffffffffffffffffffffffffffff1602179055505b82915050919050565b610100604051908101604052806008906020820280388339808201915050905050905600a165627a7a72305820309ddeb5dd30ca4fca35b362511f7a07100d87594b9e72a55303adc3550071440029",
  "source": "pragma solidity ^0.4.11;\nimport \"./zeppelin-solidity/contracts/token/ERC20/StandardToken.sol\";\n\ncontract FoodToken is StandardToken {\n\n  mapping (address => uint256) balances;\n  string public name = \"FoodToken\";\n  string public symbol = \"FGT\";\n  uint public decimals = 18;\n  uint public INITIAL_SUPPLY = 10000 * (10 ** decimals);\n  event Transfer(address indexed from, address indexed to, uint256 value);\n\n  function FoodToken(address _owner) {\n    totalSupply_ = INITIAL_SUPPLY;\n    balances[_owner] = INITIAL_SUPPLY;\n    Transfer(0x0, _owner, INITIAL_SUPPLY);\n  }\n\n  function totalSupply() public view returns (uint256) {\n    return totalSupply_;\n  }\n\n  function transfer(address _to, uint256 _value) public returns (bool success) {\n      require(balances[msg.sender] >= _value);\n      require(_to != address(0));\n\n      balances[msg.sender] -= _value;\n      balances[_to] += _value;\n      emit Transfer(msg.sender, _to, _value);\n      return true;\n  }\n\n  function balanceOf (address _owner) public view returns (uint256 balance) {\n    return balances[_owner];\n  }\n}\n\n\ncontract Purchase {\n\n  address[8] public purchases;\n  address public seller;\n\n  function Purchase(address _seller) {\n    seller = _seller;\n  }\n\n  function purchase(uint foodId) public returns (uint) {\n    require(foodId >= 0 && foodId <= 7);\n    FoodToken foodContract = FoodToken(msg.sender);\n    if (foodContract.transfer(seller, 1)) {\n      purchases[foodId] = msg.sender;\n    }\n    return foodId;\n  }\n\n  function getPurchases() public returns (address[8]) {\n    return purchases;\n  }\n}\n\n/*\ncontract Purchase {\n  address[8] public purchases;\n\n  address owner public;\n  address ft public;\n\n  function Purchase(address FoodToken){\n    owner = msg.sender\n    ft = FoodToken\n  }\n\n  function buy(uint foodId) public returns (uint) {\n    require(foodId >= 0 && petId <= 7);\n\n    purchases[foodId] = msg.sender;\n\n    return foodId;\n  }\n\n  function purchaseItem(uint item) public view returns (address[8]) {\n    FoodToken.transfer(owner, 1)\n    purchase[item] = False\n  }\n}\n*/\n",
  "sourcePath": "/Users/ericfrankel/Desktop/foodcoin_token/contracts/FoodToken.sol",
  "compiler": {
    "name": "solc",
    "version": "0.4.24+commit.e67f0147.Emscripten.clang"
  },
  "schemaVersion": "2.0.1",
  "updatedAt": "2018-07-29T11:01:34.046Z"
}