{
  "contractName": "Purchase",
  "abi": [
    {
      "constant": true,
      "inputs": [],
      "name": "seller",
      "outputs": [
        {
          "name": "",
          "type": "address"
        }
      ],
      "payable": false,
      "stateMutability": "view",
      "type": "function"
    },
    {
      "constant": true,
      "inputs": [
        {
          "name": "",
          "type": "uint256"
        }
      ],
      "name": "purchases",
      "outputs": [
        {
          "name": "",
          "type": "address"
        }
      ],
      "payable": false,
      "stateMutability": "view",
      "type": "function"
    },
    {
      "inputs": [
        {
          "name": "_seller",
          "type": "address"
        }
      ],
      "payable": false,
      "stateMutability": "nonpayable",
      "type": "constructor"
    },
    {
      "constant": false,
      "inputs": [
        {
          "name": "foodId",
          "type": "uint256"
        }
      ],
      "name": "purchase",
      "outputs": [
        {
          "name": "",
          "type": "uint256"
        }
      ],
      "payable": true,
      "stateMutability": "payable",
      "type": "function"
    },
    {
      "constant": false,
      "inputs": [],
      "name": "getPurchases",
      "outputs": [
        {
          "name": "",
          "type": "address[4]"
        }
      ],
      "payable": false,
      "stateMutability": "nonpayable",
      "type": "function"
    }
  ],
  "bytecode": "0x608060405234801561001057600080fd5b506040516020806103d68339810180604052810190808051906020019092919050505080600460006101000a81548173ffffffffffffffffffffffffffffffffffffffff021916908373ffffffffffffffffffffffffffffffffffffffff16021790555050610352806100846000396000f300608060405260043610610062576000357c0100000000000000000000000000000000000000000000000000000000900463ffffffff16806308551a53146100675780638392fe31146100be578063c47f0f901461012b578063efef39a11461017e575b600080fd5b34801561007357600080fd5b5061007c6101b2565b604051808273ffffffffffffffffffffffffffffffffffffffff1673ffffffffffffffffffffffffffffffffffffffff16815260200191505060405180910390f35b3480156100ca57600080fd5b506100e9600480360381019080803590602001909291905050506101d8565b604051808273ffffffffffffffffffffffffffffffffffffffff1673ffffffffffffffffffffffffffffffffffffffff16815260200191505060405180910390f35b34801561013757600080fd5b5061014061020d565b6040518082600460200280838360005b8381101561016b578082015181840152602081019050610150565b5050505090500191505060405180910390f35b61019c6004803603810190808035906020019092919050505061028e565b6040518082815260200191505060405180910390f35b600460009054906101000a900473ffffffffffffffffffffffffffffffffffffffff1681565b6000816004811015156101e757fe5b016000915054906101000a900473ffffffffffffffffffffffffffffffffffffffff1681565b610215610303565b6000600480602002604051908101604052809291908260048015610284576020028201915b8160009054906101000a900473ffffffffffffffffffffffffffffffffffffffff1673ffffffffffffffffffffffffffffffffffffffff168152602001906001019080831161023a575b5050505050905090565b60008082101580156102a1575060038211155b15156102ac57600080fd5b336000836004811015156102bc57fe5b0160006101000a81548173ffffffffffffffffffffffffffffffffffffffff021916908373ffffffffffffffffffffffffffffffffffffffff160217905550819050919050565b6080604051908101604052806004906020820280388339808201915050905050905600a165627a7a7230582045bdc00aec4be337258713014e48a33bc561ac5d0b5f99580742906988d294460029",
  "source": "pragma solidity ^0.4.11;\n\ncontract Purchase {\n\n  address[4] public purchases;\n  address public seller;\n\n  function Purchase(address _seller) {\n    seller = _seller;\n  }\n\n  function purchase(uint foodId) public payable returns (uint) {\n    require(foodId >= 0 && foodId <= 3);\n    purchases[foodId] = msg.sender;\n    return foodId;\n  }\n\n  function getPurchases() public returns (address[4]) {\n    return purchases;\n  }\n}\n",
  "sourcePath": "/Users/ericfrankel/Desktop/food_coin/foodcoin_token/contracts/Purchase.sol",
  "compiler": {
    "name": "solc",
    "version": "0.4.24+commit.e67f0147.Emscripten.clang"
  },
  "schemaVersion": "2.0.1",
  "updatedAt": "2018-07-29T18:46:25.986Z"
}